{
  "address": "0xbB02C83C6724F767DDfD1af0db5BF1eA271b60f7",
  "abi": [
    {
      "inputs": [
        {
          "internalType": "contract IEntryPoint",
          "name": "__entryPoint",
          "type": "address"
        }
      ],
      "stateMutability": "nonpayable",
      "type": "constructor"
    },
    {
      "inputs": [],
      "name": "deposit",
      "outputs": [],
      "stateMutability": "payable",
      "type": "function"
    },
    {
      "inputs": [],
      "name": "entryPoint",
      "outputs": [
        {
          "internalType": "contract IEntryPoint",
          "name": "",
          "type": "address"
        }
      ],
      "stateMutability": "view",
      "type": "function"
    },
    {
      "inputs": [],
      "name": "nonce",
      "outputs": [
        {
          "internalType": "uint256",
          "name": "",
          "type": "uint256"
        }
      ],
      "stateMutability": "view",
      "type": "function"
    },
    {
      "inputs": [
        {
          "internalType": "address payable",
          "name": "receiver",
          "type": "address"
        },
        {
          "internalType": "uint256",
          "name": "value",
          "type": "uint256"
        },
        {
          "components": [
            {
              "components": [
                {
                  "internalType": "uint256",
                  "name": "X",
                  "type": "uint256"
                },
                {
                  "internalType": "uint256",
                  "name": "Y",
                  "type": "uint256"
                }
              ],
              "internalType": "struct Pairing.G1Point",
              "name": "a",
              "type": "tuple"
            },
            {
              "components": [
                {
                  "internalType": "uint256[2]",
                  "name": "X",
                  "type": "uint256[2]"
                },
                {
                  "internalType": "uint256[2]",
                  "name": "Y",
                  "type": "uint256[2]"
                }
              ],
              "internalType": "struct Pairing.G2Point",
              "name": "b",
              "type": "tuple"
            },
            {
              "components": [
                {
                  "internalType": "uint256",
                  "name": "X",
                  "type": "uint256"
                },
                {
                  "internalType": "uint256",
                  "name": "Y",
                  "type": "uint256"
                }
              ],
              "internalType": "struct Pairing.G1Point",
              "name": "c",
              "type": "tuple"
            }
          ],
          "internalType": "struct Verifier.Proof",
          "name": "proof",
          "type": "tuple"
        }
      ],
      "name": "transferTo",
      "outputs": [],
      "stateMutability": "nonpayable",
      "type": "function"
    },
    {
      "inputs": [
        {
          "components": [
            {
              "internalType": "address",
              "name": "sender",
              "type": "address"
            },
            {
              "internalType": "uint256",
              "name": "nonce",
              "type": "uint256"
            },
            {
              "internalType": "bytes",
              "name": "initCode",
              "type": "bytes"
            },
            {
              "internalType": "bytes",
              "name": "callData",
              "type": "bytes"
            },
            {
              "internalType": "uint256",
              "name": "callGasLimit",
              "type": "uint256"
            },
            {
              "internalType": "uint256",
              "name": "verificationGasLimit",
              "type": "uint256"
            },
            {
              "internalType": "uint256",
              "name": "preVerificationGas",
              "type": "uint256"
            },
            {
              "internalType": "uint256",
              "name": "maxFeePerGas",
              "type": "uint256"
            },
            {
              "internalType": "uint256",
              "name": "maxPriorityFeePerGas",
              "type": "uint256"
            },
            {
              "internalType": "bytes",
              "name": "paymasterAndData",
              "type": "bytes"
            },
            {
              "internalType": "bytes",
              "name": "signature",
              "type": "bytes"
            }
          ],
          "internalType": "struct UserOperation",
          "name": "userOp",
          "type": "tuple"
        },
        {
          "internalType": "bytes32",
          "name": "userOpHash",
          "type": "bytes32"
        },
        {
          "internalType": "uint256",
          "name": "missingAccountFunds",
          "type": "uint256"
        }
      ],
      "name": "validateUserOp",
      "outputs": [
        {
          "internalType": "uint256",
          "name": "validationData",
          "type": "uint256"
        }
      ],
      "stateMutability": "nonpayable",
      "type": "function"
    },
    {
      "inputs": [
        {
          "components": [
            {
              "components": [
                {
                  "internalType": "uint256",
                  "name": "X",
                  "type": "uint256"
                },
                {
                  "internalType": "uint256",
                  "name": "Y",
                  "type": "uint256"
                }
              ],
              "internalType": "struct Pairing.G1Point",
              "name": "a",
              "type": "tuple"
            },
            {
              "components": [
                {
                  "internalType": "uint256[2]",
                  "name": "X",
                  "type": "uint256[2]"
                },
                {
                  "internalType": "uint256[2]",
                  "name": "Y",
                  "type": "uint256[2]"
                }
              ],
              "internalType": "struct Pairing.G2Point",
              "name": "b",
              "type": "tuple"
            },
            {
              "components": [
                {
                  "internalType": "uint256",
                  "name": "X",
                  "type": "uint256"
                },
                {
                  "internalType": "uint256",
                  "name": "Y",
                  "type": "uint256"
                }
              ],
              "internalType": "struct Pairing.G1Point",
              "name": "c",
              "type": "tuple"
            }
          ],
          "internalType": "struct Verifier.Proof",
          "name": "proof",
          "type": "tuple"
        }
      ],
      "name": "verifyTx",
      "outputs": [
        {
          "internalType": "bool",
          "name": "r",
          "type": "bool"
        }
      ],
      "stateMutability": "view",
      "type": "function"
    }
  ],
  "transactionHash": "0xcee42f982ea6cf1840447ea33c302d6f6b1f12fa1a54b6a756656da4b5b733c8",
  "args": [
    "0x9C73d248344E81F73e69F3A2E9b74edB0e962e0e"
  ],
  "numDeployments": 1,
  "solcInputHash": "d2748064a6da859a4da4ac13a01ccbd7",
  "bytecode": "0x608060405234801561001057600080fd5b5060405161130838038061130883398101604081905261002f9161005d565b600280546001600160a01b039092166001600160a01b0319928316179055600180549091163317905561008d565b60006020828403121561006f57600080fd5b81516001600160a01b038116811461008657600080fd5b9392505050565b61126c8061009c6000396000f3fe6080604052600436106100555760003560e01c80633a871cdd1461005a578063405358e21461008d578063affed0e0146100af578063b0d691fe146100c4578063d0e30db0146100ad578063f6af0311146100ec575b600080fd5b34801561006657600080fd5b5061007a610075366004610f17565b61011c565b6040519081526020015b60405180910390f35b34801561009957600080fd5b506100ad6100a8366004610f6b565b610161565b005b3480156100bb57600080fd5b5060005461007a565b3480156100d057600080fd5b506002546040516001600160a01b039091168152602001610084565b3480156100f857600080fd5b5061010c6101073660046110a1565b6101a9565b6040519015158152602001610084565b60006101266101e2565b6101308484610241565b905061013f6040850185611144565b9050600003610151576101518461024a565b61015a826102ab565b9392505050565b61016a81610304565b506040516001600160a01b0384169083156108fc029084906000818181858888f193505050501580156101a1573d6000803e3d6000fd5b50505050565b565b604080516000808252602082019092526101c38184610372565b6000036101d35750600192915050565b50600092915050565b50919050565b6002546001600160a01b031633146101a75760405162461bcd60e51b815260206004820152601c60248201527f6163636f756e743a206e6f742066726f6d20456e747279506f696e740000000060448201526064015b60405180910390fd5b60005b92915050565b600080546020830135918061025e836111a8565b91905055146102a85760405162461bcd60e51b81526020600482015260166024820152756163636f756e743a20696e76616c6964206e6f6e636560501b6044820152606401610238565b50565b80156102a857604051600090339060001990849084818181858888f193505050503d80600081146102f8576040519150601f19603f3d011682016040523d82523d6000602084013e6102fd565b606091505b5050505050565b600060606103208161031b368690038601866110a1565b610372565b915061032b826104f5565b81156101dc5760405162461bcd60e51b815260206004820152601660248201527530b1b1b7bab73a1d1034b73b30b634b210383937b7b360511b6044820152606401610238565b60007f30644e72e131a029b85045b68181585d2833e84879b9709143e1f593f00000018161039e61053a565b9050806080015151855160016103b491906111c1565b146103be57600080fd5b604080518082019091526000808252602082018190525b865181101561046c57838782815181106103f1576103f16111d4565b60200260200101511061040357600080fd5b61045882610453856080015184600161041c91906111c1565b8151811061042c5761042c6111d4565b60200260200101518a8581518110610446576104466111d4565b602002602001015161085d565b6108bb565b915080610464816111a8565b9150506103d5565b50610495818360800151600081518110610488576104886111d4565b60200260200101516108bb565b90506104d9856000015186602001516104ad84610911565b85604001516104bf8a60400151610911565b606088015188516104cf90610911565b89602001516109b0565b6104e95760019350505050610244565b50600095945050505050565b6102a88160405160240161050b91815260200190565b60408051601f198184030181529190526020810180516001600160e01b031663f82c50f160e01b179052610b3b565b610542610e29565b6040805180820182527f2f4a70e50319b8e5ce2c7b095c8f78047a63c00e3ae0e17054f937360d4e1c7081527f0846fec0280eb5ed4bfee5709e257e669466394885f17506825937ef9aee1b336020808301919091529083528151608080820184527f115ee7128fe22739919759c0845e9570c6ddfe3098f593df9ea3895abb16772a8285019081527f2730196232f1afdf9ac63d26a7c6c76be54afc3feb69dd87bace21c95a648ccc606080850191909152908352845180860186527f09b288786ba9e25d34a8a0b371f746921964749566843ad9d4026f877f2e2cb481527f02133762e98bf91c84f3ec8a9be390717b572072023027ba279a84d082fa45f0818601528385015285840192909252835180820185527f206f71fcc011be160453c03af61a3441f572b3d9a21a95b12e7b2f171deb76f48186019081527f29140737eff9d52afda38dcaa57e87951751404665b33574f64f539c2a8a0d6c828501528152845180860186527f0b9ed924f4ca4981e9b4cd984100531e96ea39de5b29d2b462e9964f01d0f09781527f05378a2911f0c56c59bf3ae88444c56d65c0b9089b08388d2365e53ea70d72bc818601528185015285850152835190810184527f077f94bab9a17ae34c408f56a0c5092b8b6736e305011f3e0f4dbd3ab3b48ac78185019081527f17840f4734f78ba4b9acac401a0c4578c2da4f47f143406f768f47476c1b81d2828401528152835180850185527f283fd1d426f3215e06949e0f007ba0d2eca6eda73c536d5a78a96f1709772abe81527f1358b5b9a5c0302ed36b7450ddcc9409c752a92847fca9f11ef0798acefe34eb81850152818401529084015281516001808252818401909352919082015b60408051808201909152600080825260208201528152602001906001900390816107bc57505060808201908152604080518082019091527f0cfd929e2a51e63388a1840760a7ce7d2c6af45e55ddf342339dee6e0a0d10ef81527f0e92eb1c4aec22caf4c51fdc8252ff09f6f3fb1d989c49f7ead68fd2b0d7532c60208201529051805160009061084f5761084f6111d4565b602002602001018190525090565b6040805180820190915260008082526020820152610879610e7a565b835181526020808501519082015260408101839052600060608360808460076107d05a03fa905080806108a857fe5b50806108b357600080fd5b505092915050565b60408051808201909152600080825260208201526108d7610e98565b8351815260208085015181830152835160408301528301516060808301919091526000908360c08460066107d05a03fa905080806108a857fe5b604080518082019091526000808252602082015281517f30644e72e131a029b85045b68181585d97816a916871ca8d3c208c16d87cfd479015801561095857506020830151155b156109785750506040805180820190915260008082526020820152919050565b60405180604001604052808460000151815260200182856020015161099d91906111ea565b6109a7908461120c565b90529392505050565b60408051600480825260a08201909252600091829190816020015b60408051808201909152600080825260208201528152602001906001900390816109cb57505060408051600480825260a0820190925291925060009190602082015b610a15610eb6565b815260200190600190039081610a0d5790505090508a82600081518110610a3e57610a3e6111d4565b60200260200101819052508882600181518110610a5d57610a5d6111d4565b60200260200101819052508682600281518110610a7c57610a7c6111d4565b60200260200101819052508482600381518110610a9b57610a9b6111d4565b60200260200101819052508981600081518110610aba57610aba6111d4565b60200260200101819052508781600181518110610ad957610ad96111d4565b60200260200101819052508581600281518110610af857610af86111d4565b60200260200101819052508381600381518110610b1757610b176111d4565b6020026020010181905250610b2c8282610b5c565b9b9a5050505050505050505050565b80516a636f6e736f6c652e6c6f67602083016000808483855afa5050505050565b60008151835114610b6c57600080fd5b82516000610b7b82600661121f565b905060008167ffffffffffffffff811115610b9857610b98610fc3565b604051908082528060200260200182016040528015610bc1578160200160208202803683370190505b50905060005b83811015610dfc57868181518110610be157610be16111d4565b60200260200101516000015182826006610bfb919061121f565b610c069060006111c1565b81518110610c1657610c166111d4565b602002602001018181525050868181518110610c3457610c346111d4565b60200260200101516020015182826006610c4e919061121f565b610c599060016111c1565b81518110610c6957610c696111d4565b602002602001018181525050858181518110610c8757610c876111d4565b60209081029190910181015151015182610ca283600661121f565b610cad9060026111c1565b81518110610cbd57610cbd6111d4565b602002602001018181525050858181518110610cdb57610cdb6111d4565b6020908102919091010151515182610cf483600661121f565b610cff9060036111c1565b81518110610d0f57610d0f6111d4565b602002602001018181525050858181518110610d2d57610d2d6111d4565b602002602001015160200151600160028110610d4b57610d4b6111d4565b602002015182610d5c83600661121f565b610d679060046111c1565b81518110610d7757610d776111d4565b602002602001018181525050858181518110610d9557610d956111d4565b602002602001015160200151600060028110610db357610db36111d4565b602002015182610dc483600661121f565b610dcf9060056111c1565b81518110610ddf57610ddf6111d4565b602090810291909101015280610df4816111a8565b915050610bc7565b50610e05610edb565b6000602082602086026020860160086107d05a03fa50505115159695505050505050565b6040805160e08101909152600060a0820181815260c0830191909152815260208101610e53610eb6565b8152602001610e60610eb6565b8152602001610e6d610eb6565b8152602001606081525090565b60405180606001604052806003906020820280368337509192915050565b60405180608001604052806004906020820280368337509192915050565b6040518060400160405280610ec9610ef9565b8152602001610ed6610ef9565b905290565b60405180602001604052806001906020820280368337509192915050565b60405180604001604052806002906020820280368337509192915050565b600080600060608486031215610f2c57600080fd5b833567ffffffffffffffff811115610f4357600080fd5b84016101608187031215610f5657600080fd5b95602085013595506040909401359392505050565b6000806000838503610140811215610f8257600080fd5b84356001600160a01b0381168114610f9957600080fd5b935060208501359250610100603f1982011215610fb557600080fd5b506040840190509250925092565b634e487b7160e01b600052604160045260246000fd5b6040805190810167ffffffffffffffff81118282101715610ffc57610ffc610fc3565b60405290565b60006040828403121561101457600080fd5b6040516040810181811067ffffffffffffffff8211171561103757611037610fc3565b604052823581526020928301359281019290925250919050565b600082601f83011261106257600080fd5b61106a610fd9565b80604084018581111561107c57600080fd5b845b8181101561109657803584526020938401930161107e565b509095945050505050565b60008183036101008112156110b557600080fd5b6040516060810181811067ffffffffffffffff821117156110d8576110d8610fc3565b6040526110e58585611002565b81526080603f19830112156110f957600080fd5b611101610fd9565b91506111108560408601611051565b825261111f8560808601611051565b60208301528160208201526111378560c08601611002565b6040820152949350505050565b6000808335601e1984360301811261115b57600080fd5b83018035915067ffffffffffffffff82111561117657600080fd5b60200191503681900382131561118b57600080fd5b9250929050565b634e487b7160e01b600052601160045260246000fd5b6000600182016111ba576111ba611192565b5060010190565b8082018082111561024457610244611192565b634e487b7160e01b600052603260045260246000fd5b60008261120757634e487b7160e01b600052601260045260246000fd5b500690565b8181038181111561024457610244611192565b80820281158282048414176102445761024461119256fea2646970667358221220605a176a2524df2b6711e8db616a093adab02c11e73490fc4e85989f8dc06f6464736f6c63430008110033",
  "devdoc": {
    "kind": "dev",
    "methods": {
      "transferTo(address,uint256,((uint256,uint256),(uint256[2],uint256[2]),(uint256,uint256)))": {
        "details": "Set the entryPoint.",
        "params": {
          "proof": "ZK Proof",
          "receiver": "The address of the receiver",
          "value": "The amount of ether to transfer"
        }
      }
    },
    "version": 1
  },
  "userdoc": {
    "kind": "user",
    "methods": {
      "deposit()": {
        "notice": "Deposit ETH to the contract"
      },
      "entryPoint()": {
        "notice": "return the entryPoint used by this account. subclass should return the current entryPoint used by this account."
      },
      "nonce()": {
        "notice": "return the account nonce. subclass should return a nonce value that is used both by _validateAndUpdateNonce, and by the external provider (to read the current nonce)"
      },
      "validateUserOp((address,uint256,bytes,bytes,uint256,uint256,uint256,uint256,uint256,bytes,bytes),bytes32,uint256)": {
        "notice": "Validate user's signature and nonce. subclass doesn't need to override this method. Instead, it should override the specific internal validation methods."
      }
    },
    "notice": "Basic account implementation. this contract provides the basic logic for implementing the IAccount interface  - validateUserOp specific account implementation should inherit it and provide the account-specific logic",
    "version": 1
  },
  "storageLayout": {
    "storage": [
      {
        "astId": 152,
        "contract": "contracts/EtherCard.sol:EtherCard",
        "label": "_nonce",
        "offset": 0,
        "slot": "0",
        "type": "t_uint256"
      },
      {
        "astId": 154,
        "contract": "contracts/EtherCard.sol:EtherCard",
        "label": "_owner",
        "offset": 0,
        "slot": "1",
        "type": "t_address"
      },
      {
        "astId": 157,
        "contract": "contracts/EtherCard.sol:EtherCard",
        "label": "_entryPoint",
        "offset": 0,
        "slot": "2",
        "type": "t_contract(IEntryPoint)1793"
      }
    ],
    "types": {
      "t_address": {
        "encoding": "inplace",
        "label": "address",
        "numberOfBytes": "20"
      },
      "t_contract(IEntryPoint)1793": {
        "encoding": "inplace",
        "label": "contract IEntryPoint",
        "numberOfBytes": "20"
      },
      "t_uint256": {
        "encoding": "inplace",
        "label": "uint256",
        "numberOfBytes": "32"
      }
    }
  }
}